{
	"contracts/L14-DeploycontractatSameAddress,sol.sol": {
		"Proposal": {
			"abi": [
				{
					"anonymous": false,
					"inputs": [
						{
							"indexed": false,
							"internalType": "string",
							"name": "message",
							"type": "string"
						}
					],
					"name": "Log",
					"type": "event"
				},
				{
					"inputs": [],
					"name": "emergencyStop",
					"outputs": [],
					"stateMutability": "nonpayable",
					"type": "function"
				},
				{
					"inputs": [],
					"name": "executeProposal",
					"outputs": [],
					"stateMutability": "nonpayable",
					"type": "function"
				}
			],
			"devdoc": {
				"kind": "dev",
				"methods": {},
				"version": 1
			},
			"evm": {
				"assembly": "    /* \"contracts/L14-DeploycontractatSameAddress,sol.sol\":1926:2177  contract Proposal {... */\n  mstore(0x40, 0x80)\n  callvalue\n  dup1\n  iszero\n  tag_1\n  jumpi\n  0x00\n  dup1\n  revert\ntag_1:\n  pop\n  dataSize(sub_0)\n  dup1\n  dataOffset(sub_0)\n  0x00\n  codecopy\n  0x00\n  return\nstop\n\nsub_0: assembly {\n        /* \"contracts/L14-DeploycontractatSameAddress,sol.sol\":1926:2177  contract Proposal {... */\n      mstore(0x40, 0x80)\n      callvalue\n      dup1\n      iszero\n      tag_1\n      jumpi\n      0x00\n      dup1\n      revert\n    tag_1:\n      pop\n      jumpi(tag_2, lt(calldatasize, 0x04))\n      shr(0xe0, calldataload(0x00))\n      dup1\n      0x373058b8\n      eq\n      tag_3\n      jumpi\n      dup1\n      0x63a599a4\n      eq\n      tag_4\n      jumpi\n    tag_2:\n      0x00\n      dup1\n      revert\n        /* \"contracts/L14-DeploycontractatSameAddress,sol.sol\":1985:2080  function executeProposal() external {... */\n    tag_3:\n      tag_5\n      tag_6\n      jump\t// in\n    tag_5:\n      stop\n        /* \"contracts/L14-DeploycontractatSameAddress,sol.sol\":2088:2174  function emergencyStop() external {... */\n    tag_4:\n      tag_7\n      tag_8\n      jump\t// in\n    tag_7:\n      stop\n        /* \"contracts/L14-DeploycontractatSameAddress,sol.sol\":1985:2080  function executeProposal() external {... */\n    tag_6:\n        /* \"contracts/L14-DeploycontractatSameAddress,sol.sol\":2037:2072  Log(\"Excuted code approved by DAO\") */\n      0xcf34ef537ac33ee1ac626ca1587a0a7e8e51561e5514f8cb36afa1c5102b3bab\n      mload(0x40)\n      tag_10\n      swap1\n      tag_11\n      jump\t// in\n    tag_10:\n      mload(0x40)\n      dup1\n      swap2\n      sub\n      swap1\n      log1\n        /* \"contracts/L14-DeploycontractatSameAddress,sol.sol\":1985:2080  function executeProposal() external {... */\n      jump\t// out\n        /* \"contracts/L14-DeploycontractatSameAddress,sol.sol\":2088:2174  function emergencyStop() external {... */\n    tag_8:\n        /* \"contracts/L14-DeploycontractatSameAddress,sol.sol\":2162:2163  0 */\n      0x00\n        /* \"contracts/L14-DeploycontractatSameAddress,sol.sol\":2133:2166  selfdestruct(payable(address(0))) */\n      0xffffffffffffffffffffffffffffffffffffffff\n      and\n      selfdestruct\n        /* \"#utility.yul\":7:176   */\n    tag_13:\n        /* \"#utility.yul\":91:102   */\n      0x00\n        /* \"#utility.yul\":125:131   */\n      dup3\n        /* \"#utility.yul\":120:123   */\n      dup3\n        /* \"#utility.yul\":113:132   */\n      mstore\n        /* \"#utility.yul\":165:169   */\n      0x20\n        /* \"#utility.yul\":160:163   */\n      dup3\n        /* \"#utility.yul\":156:170   */\n      add\n        /* \"#utility.yul\":141:170   */\n      swap1\n      pop\n        /* \"#utility.yul\":7:176   */\n      swap3\n      swap2\n      pop\n      pop\n      jump\t// out\n        /* \"#utility.yul\":182:360   */\n    tag_14:\n        /* \"#utility.yul\":322:352   */\n      0x4578637574656420636f646520617070726f7665642062792044414f00000000\n        /* \"#utility.yul\":318:319   */\n      0x00\n        /* \"#utility.yul\":310:316   */\n      dup3\n        /* \"#utility.yul\":306:320   */\n      add\n        /* \"#utility.yul\":299:353   */\n      mstore\n        /* \"#utility.yul\":182:360   */\n      pop\n      jump\t// out\n        /* \"#utility.yul\":366:732   */\n    tag_15:\n        /* \"#utility.yul\":508:511   */\n      0x00\n        /* \"#utility.yul\":529:596   */\n      tag_20\n        /* \"#utility.yul\":593:595   */\n      0x1c\n        /* \"#utility.yul\":588:591   */\n      dup4\n        /* \"#utility.yul\":529:596   */\n      tag_13\n      jump\t// in\n    tag_20:\n        /* \"#utility.yul\":522:596   */\n      swap2\n      pop\n        /* \"#utility.yul\":605:698   */\n      tag_21\n        /* \"#utility.yul\":694:697   */\n      dup3\n        /* \"#utility.yul\":605:698   */\n      tag_14\n      jump\t// in\n    tag_21:\n        /* \"#utility.yul\":723:725   */\n      0x20\n        /* \"#utility.yul\":718:721   */\n      dup3\n        /* \"#utility.yul\":714:726   */\n      add\n        /* \"#utility.yul\":707:726   */\n      swap1\n      pop\n        /* \"#utility.yul\":366:732   */\n      swap2\n      swap1\n      pop\n      jump\t// out\n        /* \"#utility.yul\":738:1157   */\n    tag_11:\n        /* \"#utility.yul\":904:908   */\n      0x00\n        /* \"#utility.yul\":942:944   */\n      0x20\n        /* \"#utility.yul\":931:940   */\n      dup3\n        /* \"#utility.yul\":927:945   */\n      add\n        /* \"#utility.yul\":919:945   */\n      swap1\n      pop\n        /* \"#utility.yul\":991:1000   */\n      dup2\n        /* \"#utility.yul\":985:989   */\n      dup2\n        /* \"#utility.yul\":981:1001   */\n      sub\n        /* \"#utility.yul\":977:978   */\n      0x00\n        /* \"#utility.yul\":966:975   */\n      dup4\n        /* \"#utility.yul\":962:979   */\n      add\n        /* \"#utility.yul\":955:1002   */\n      mstore\n        /* \"#utility.yul\":1019:1150   */\n      tag_23\n        /* \"#utility.yul\":1145:1149   */\n      dup2\n        /* \"#utility.yul\":1019:1150   */\n      tag_15\n      jump\t// in\n    tag_23:\n        /* \"#utility.yul\":1011:1150   */\n      swap1\n      pop\n        /* \"#utility.yul\":738:1157   */\n      swap2\n      swap1\n      pop\n      jump\t// out\n\n    auxdata: 0xa2646970667358221220cb852e9113b8128ddd67cc5913ebcccbdfd657289a0429d8e4e2414c1965677d64736f6c63430008120033\n}\n",
				"bytecode": {
					"linkReferences": {},
					"object": "608060405234801561001057600080fd5b50610153806100206000396000f3fe608060405234801561001057600080fd5b50600436106100365760003560e01c8063373058b81461003b57806363a599a414610045575b600080fd5b61004361004f565b005b61004d610086565b005b7fcf34ef537ac33ee1ac626ca1587a0a7e8e51561e5514f8cb36afa1c5102b3bab60405161007c906100fd565b60405180910390a1565b600073ffffffffffffffffffffffffffffffffffffffff16ff5b600082825260208201905092915050565b7f4578637574656420636f646520617070726f7665642062792044414f00000000600082015250565b60006100e7601c836100a0565b91506100f2826100b1565b602082019050919050565b60006020820190508181036000830152610116816100da565b905091905056fea2646970667358221220cb852e9113b8128ddd67cc5913ebcccbdfd657289a0429d8e4e2414c1965677d64736f6c63430008120033",
					"opcodes": "PUSH1 0x80 PUSH1 0x40 MSTORE CALLVALUE DUP1 ISZERO PUSH2 0x10 JUMPI PUSH1 0x0 DUP1 REVERT JUMPDEST POP PUSH2 0x153 DUP1 PUSH2 0x20 PUSH1 0x0 CODECOPY PUSH1 0x0 RETURN INVALID PUSH1 0x80 PUSH1 0x40 MSTORE CALLVALUE DUP1 ISZERO PUSH2 0x10 JUMPI PUSH1 0x0 DUP1 REVERT JUMPDEST POP PUSH1 0x4 CALLDATASIZE LT PUSH2 0x36 JUMPI PUSH1 0x0 CALLDATALOAD PUSH1 0xE0 SHR DUP1 PUSH4 0x373058B8 EQ PUSH2 0x3B JUMPI DUP1 PUSH4 0x63A599A4 EQ PUSH2 0x45 JUMPI JUMPDEST PUSH1 0x0 DUP1 REVERT JUMPDEST PUSH2 0x43 PUSH2 0x4F JUMP JUMPDEST STOP JUMPDEST PUSH2 0x4D PUSH2 0x86 JUMP JUMPDEST STOP JUMPDEST PUSH32 0xCF34EF537AC33EE1AC626CA1587A0A7E8E51561E5514F8CB36AFA1C5102B3BAB PUSH1 0x40 MLOAD PUSH2 0x7C SWAP1 PUSH2 0xFD JUMP JUMPDEST PUSH1 0x40 MLOAD DUP1 SWAP2 SUB SWAP1 LOG1 JUMP JUMPDEST PUSH1 0x0 PUSH20 0xFFFFFFFFFFFFFFFFFFFFFFFFFFFFFFFFFFFFFFFF AND SELFDESTRUCT JUMPDEST PUSH1 0x0 DUP3 DUP3 MSTORE PUSH1 0x20 DUP3 ADD SWAP1 POP SWAP3 SWAP2 POP POP JUMP JUMPDEST PUSH32 0x4578637574656420636F646520617070726F7665642062792044414F00000000 PUSH1 0x0 DUP3 ADD MSTORE POP JUMP JUMPDEST PUSH1 0x0 PUSH2 0xE7 PUSH1 0x1C DUP4 PUSH2 0xA0 JUMP JUMPDEST SWAP2 POP PUSH2 0xF2 DUP3 PUSH2 0xB1 JUMP JUMPDEST PUSH1 0x20 DUP3 ADD SWAP1 POP SWAP2 SWAP1 POP JUMP JUMPDEST PUSH1 0x0 PUSH1 0x20 DUP3 ADD SWAP1 POP DUP2 DUP2 SUB PUSH1 0x0 DUP4 ADD MSTORE PUSH2 0x116 DUP2 PUSH2 0xDA JUMP JUMPDEST SWAP1 POP SWAP2 SWAP1 POP JUMP INVALID LOG2 PUSH5 0x6970667358 0x22 SLT KECCAK256 0xCB DUP6 0x2E SWAP2 SGT 0xB8 SLT DUP14 0xDD PUSH8 0xCC5913EBCCCBDFD6 JUMPI 0x28 SWAP11 DIV 0x29 0xD8 0xE4 0xE2 COINBASE 0x4C NOT PUSH6 0x677D64736F6C PUSH4 0x43000812 STOP CALLER "
				},
				"gasEstimates": {
					"creation": {
						"codeDepositCost": "67800",
						"executionCost": "117",
						"totalCost": "67917"
					},
					"external": {
						"emergencyStop()": "27744",
						"executeProposal()": "1924"
					}
				},
				"methodIdentifiers": {
					"emergencyStop()": "63a599a4",
					"executeProposal()": "373058b8"
				}
			},
			"storageLayout": {
				"storage": [],
				"types": null
			},
			"userdoc": {
				"kind": "user",
				"methods": {},
				"version": 1
			}
		}
	}
}