{
	"contracts/L10-MalciousCode.sol": {
		"Bar": {
			"abi": [
				{
					"anonymous": false,
					"inputs": [
						{
							"indexed": false,
							"internalType": "string",
							"name": "message",
							"type": "string"
						}
					],
					"name": "Log",
					"type": "event"
				},
				{
					"inputs": [],
					"name": "log",
					"outputs": [],
					"stateMutability": "nonpayable",
					"type": "function"
				}
			],
			"devdoc": {
				"kind": "dev",
				"methods": {},
				"version": 1
			},
			"evm": {
				"assembly": "    /* \"contracts/L10-MalciousCode.sol\":1129:1253  contract Bar {... */\n  mstore(0x40, 0x80)\n  callvalue\n  dup1\n  iszero\n  tag_1\n  jumpi\n  0x00\n  dup1\n  revert\ntag_1:\n  pop\n  dataSize(sub_0)\n  dup1\n  dataOffset(sub_0)\n  0x00\n  codecopy\n  0x00\n  return\nstop\n\nsub_0: assembly {\n        /* \"contracts/L10-MalciousCode.sol\":1129:1253  contract Bar {... */\n      mstore(0x40, 0x80)\n      callvalue\n      dup1\n      iszero\n      tag_1\n      jumpi\n      0x00\n      dup1\n      revert\n    tag_1:\n      pop\n      jumpi(tag_2, lt(calldatasize, 0x04))\n      shr(0xe0, calldataload(0x00))\n      dup1\n      0x51973ec9\n      eq\n      tag_3\n      jumpi\n    tag_2:\n      0x00\n      dup1\n      revert\n        /* \"contracts/L10-MalciousCode.sol\":1183:1250  function log() public {... */\n    tag_3:\n      tag_4\n      tag_5\n      jump\t// in\n    tag_4:\n      stop\n    tag_5:\n        /* \"contracts/L10-MalciousCode.sol\":1221:1242  Log(\"Bar was called\") */\n      0xcf34ef537ac33ee1ac626ca1587a0a7e8e51561e5514f8cb36afa1c5102b3bab\n      mload(0x40)\n      tag_7\n      swap1\n      tag_8\n      jump\t// in\n    tag_7:\n      mload(0x40)\n      dup1\n      swap2\n      sub\n      swap1\n      log1\n        /* \"contracts/L10-MalciousCode.sol\":1183:1250  function log() public {... */\n      jump\t// out\n        /* \"#utility.yul\":7:176   */\n    tag_9:\n        /* \"#utility.yul\":91:102   */\n      0x00\n        /* \"#utility.yul\":125:131   */\n      dup3\n        /* \"#utility.yul\":120:123   */\n      dup3\n        /* \"#utility.yul\":113:132   */\n      mstore\n        /* \"#utility.yul\":165:169   */\n      0x20\n        /* \"#utility.yul\":160:163   */\n      dup3\n        /* \"#utility.yul\":156:170   */\n      add\n        /* \"#utility.yul\":141:170   */\n      swap1\n      pop\n        /* \"#utility.yul\":7:176   */\n      swap3\n      swap2\n      pop\n      pop\n      jump\t// out\n        /* \"#utility.yul\":182:346   */\n    tag_10:\n        /* \"#utility.yul\":322:338   */\n      0x426172207761732063616c6c6564000000000000000000000000000000000000\n        /* \"#utility.yul\":318:319   */\n      0x00\n        /* \"#utility.yul\":310:316   */\n      dup3\n        /* \"#utility.yul\":306:320   */\n      add\n        /* \"#utility.yul\":299:339   */\n      mstore\n        /* \"#utility.yul\":182:346   */\n      pop\n      jump\t// out\n        /* \"#utility.yul\":352:718   */\n    tag_11:\n        /* \"#utility.yul\":494:497   */\n      0x00\n        /* \"#utility.yul\":515:582   */\n      tag_16\n        /* \"#utility.yul\":579:581   */\n      0x0e\n        /* \"#utility.yul\":574:577   */\n      dup4\n        /* \"#utility.yul\":515:582   */\n      tag_9\n      jump\t// in\n    tag_16:\n        /* \"#utility.yul\":508:582   */\n      swap2\n      pop\n        /* \"#utility.yul\":591:684   */\n      tag_17\n        /* \"#utility.yul\":680:683   */\n      dup3\n        /* \"#utility.yul\":591:684   */\n      tag_10\n      jump\t// in\n    tag_17:\n        /* \"#utility.yul\":709:711   */\n      0x20\n        /* \"#utility.yul\":704:707   */\n      dup3\n        /* \"#utility.yul\":700:712   */\n      add\n        /* \"#utility.yul\":693:712   */\n      swap1\n      pop\n        /* \"#utility.yul\":352:718   */\n      swap2\n      swap1\n      pop\n      jump\t// out\n        /* \"#utility.yul\":724:1143   */\n    tag_8:\n        /* \"#utility.yul\":890:894   */\n      0x00\n        /* \"#utility.yul\":928:930   */\n      0x20\n        /* \"#utility.yul\":917:926   */\n      dup3\n        /* \"#utility.yul\":913:931   */\n      add\n        /* \"#utility.yul\":905:931   */\n      swap1\n      pop\n        /* \"#utility.yul\":977:986   */\n      dup2\n        /* \"#utility.yul\":971:975   */\n      dup2\n        /* \"#utility.yul\":967:987   */\n      sub\n        /* \"#utility.yul\":963:964   */\n      0x00\n        /* \"#utility.yul\":952:961   */\n      dup4\n        /* \"#utility.yul\":948:965   */\n      add\n        /* \"#utility.yul\":941:988   */\n      mstore\n        /* \"#utility.yul\":1005:1136   */\n      tag_19\n        /* \"#utility.yul\":1131:1135   */\n      dup2\n        /* \"#utility.yul\":1005:1136   */\n      tag_11\n      jump\t// in\n    tag_19:\n        /* \"#utility.yul\":997:1136   */\n      swap1\n      pop\n        /* \"#utility.yul\":724:1143   */\n      swap2\n      swap1\n      pop\n      jump\t// out\n\n    auxdata: 0xa264697066735822122030269ca25ffccb6880ae3f9ccefa63a45f5e9db82c5c1a2f3e3519b5e58a81a164736f6c63430008120033\n}\n",
				"bytecode": {
					"linkReferences": {},
					"object": "608060405234801561001057600080fd5b50610117806100206000396000f3fe6080604052348015600f57600080fd5b506004361060285760003560e01c806351973ec914602d575b600080fd5b60336035565b005b7fcf34ef537ac33ee1ac626ca1587a0a7e8e51561e5514f8cb36afa1c5102b3bab60405160609060c3565b60405180910390a1565b600082825260208201905092915050565b7f426172207761732063616c6c6564000000000000000000000000000000000000600082015250565b600060af600e83606a565b915060b882607b565b602082019050919050565b6000602082019050818103600083015260da8160a4565b905091905056fea264697066735822122030269ca25ffccb6880ae3f9ccefa63a45f5e9db82c5c1a2f3e3519b5e58a81a164736f6c63430008120033",
					"opcodes": "PUSH1 0x80 PUSH1 0x40 MSTORE CALLVALUE DUP1 ISZERO PUSH2 0x10 JUMPI PUSH1 0x0 DUP1 REVERT JUMPDEST POP PUSH2 0x117 DUP1 PUSH2 0x20 PUSH1 0x0 CODECOPY PUSH1 0x0 RETURN INVALID PUSH1 0x80 PUSH1 0x40 MSTORE CALLVALUE DUP1 ISZERO PUSH1 0xF JUMPI PUSH1 0x0 DUP1 REVERT JUMPDEST POP PUSH1 0x4 CALLDATASIZE LT PUSH1 0x28 JUMPI PUSH1 0x0 CALLDATALOAD PUSH1 0xE0 SHR DUP1 PUSH4 0x51973EC9 EQ PUSH1 0x2D JUMPI JUMPDEST PUSH1 0x0 DUP1 REVERT JUMPDEST PUSH1 0x33 PUSH1 0x35 JUMP JUMPDEST STOP JUMPDEST PUSH32 0xCF34EF537AC33EE1AC626CA1587A0A7E8E51561E5514F8CB36AFA1C5102B3BAB PUSH1 0x40 MLOAD PUSH1 0x60 SWAP1 PUSH1 0xC3 JUMP JUMPDEST PUSH1 0x40 MLOAD DUP1 SWAP2 SUB SWAP1 LOG1 JUMP JUMPDEST PUSH1 0x0 DUP3 DUP3 MSTORE PUSH1 0x20 DUP3 ADD SWAP1 POP SWAP3 SWAP2 POP POP JUMP JUMPDEST PUSH32 0x426172207761732063616C6C6564000000000000000000000000000000000000 PUSH1 0x0 DUP3 ADD MSTORE POP JUMP JUMPDEST PUSH1 0x0 PUSH1 0xAF PUSH1 0xE DUP4 PUSH1 0x6A JUMP JUMPDEST SWAP2 POP PUSH1 0xB8 DUP3 PUSH1 0x7B JUMP JUMPDEST PUSH1 0x20 DUP3 ADD SWAP1 POP SWAP2 SWAP1 POP JUMP JUMPDEST PUSH1 0x0 PUSH1 0x20 DUP3 ADD SWAP1 POP DUP2 DUP2 SUB PUSH1 0x0 DUP4 ADD MSTORE PUSH1 0xDA DUP2 PUSH1 0xA4 JUMP JUMPDEST SWAP1 POP SWAP2 SWAP1 POP JUMP INVALID LOG2 PUSH5 0x6970667358 0x22 SLT KECCAK256 ADDRESS 0x26 SWAP13 LOG2 0x5F 0xFC 0xCB PUSH9 0x80AE3F9CCEFA63A45F 0x5E SWAP14 0xB8 0x2C 0x5C BYTE 0x2F RETURNDATACOPY CALLDATALOAD NOT 0xB5 0xE5 DUP11 DUP2 LOG1 PUSH5 0x736F6C6343 STOP ADDMOD SLT STOP CALLER "
				},
				"gasEstimates": {
					"creation": {
						"codeDepositCost": "55800",
						"executionCost": "105",
						"totalCost": "55905"
					},
					"external": {
						"log()": "1924"
					}
				},
				"methodIdentifiers": {
					"log()": "51973ec9"
				}
			},
			"storageLayout": {
				"storage": [],
				"types": null
			},
			"userdoc": {
				"kind": "user",
				"methods": {},
				"version": 1
			}
		}
	}
}